:100000000C9403020C9420020C9420020C94200205
:100010000C9420020C9420020C9420020C942002D8
:100020000C9420020C9420020C94C9190C949D1A73
:100030000C94CD140C9420020C9420020C942002F9
:100040000C9420020C9420020C9420020C942002A8
:100050000C9420020C9454150C9420020C94200251
:100060000C9420020C9420020C9420020C94200288
:100070000C9420020C9420020C9420020C94200278
:100080000C9420020C9420020C9420020C94200268
:100090000C9420020C9420020C9420020C94200258
:1000A0000C9420020C9420020C94200235001E00B7
:1000B0001F00200021001500090019002B0014006A
:1000C0001A00080007000600E200E300E000040058
:1000D00016001B001D00E100E000015122002D0070
:1000E00029002E0023001C000B00110017002F0018
:1000F0004B0030002A0003512C0000000A004C0085
:100100004E00E70002510500000000002400250019
:10011000260027002A0034002800380018000C00B0
:100120001200130033005200500051000D000E0069
:100130000F003700360010004F00E60001003A00C3
:100140003B003C003D0001000100010001000100F6
:100150000100010001000100010001000100010097
:100160000100010001000100010001003E00440007
:10017000290045003F0001000100010001000100CD
:100180000100010001000100010000000100010068
:1001900001000100010001000000000040004100DA
:1001A000420043004C003100010001000100010049
:1001B0002F003000010001000100010001000100DA
:1001C0000100010001000100010001000000000029
:1001D00000000000000000000000000000006800B7
:1001E00069006A006D0070007100730000006B0010
:1001F0006C006F006E000000000071000000000045
:10020000AE00BC00BB0000000000000000000000C9
:1002100000000000000000000000000000000000DE
:10022000000001000000000000000000BE00BD0052
:10023000AA00A900A800570061005E002A0054002F
:100240005500560060005D0059005A0067005800D4
:100250005F005C00630085005B006200000000003E
:10026000000000000000000000000000000000008E
:10027000000000000000000000000000000000007E
:10028000000000000000000000000000000000006E
:10029000000000000000F900FA000000000000006B
:1002A00000000000FF000100000000000000FD0051
:1002B000FE00000000000000000000000000000040
:1002C0000000000000000000000000000000ED0041
:1002D000000000000000000000000000EF00EE0041
:1002E000F0000000000000000000005C0E0354005D
:1002F00072006900700065006C0000000A03500085
:10030000650065006A0000000403090409023B005F
:10031000020100A0FA090400000103010100092103
:1003200011010001224000070581030800010904B2
:1003300001000103000000092111010001226D00EC
:100340000705820320000112010002000000086A74
:1003500070010001000102000105010980A1018571
:100360000319012AB700150126B700950175108100
:1003700000C0050C0901A101850419012AA002157C
:100380000126A002950175108100C005010906A192
:10039000018506050719E029E7150025019508756F
:1003A0000181020507190029EF1500250195F07557
:1003B000018102050819012905950575019102952C
:1003C0000175039101C005010906A101050719E0A6
:1003D00029E7150025019508750181029501750829
:1003E00081010507190029FF150026FF00950675F4
:1003F00008810005081901290595057501910295E7
:100400000175039101C011241FBECFEFDAE0DEBFFA
:10041000CDBF11E0A0E0B1E0E0E6FAE302C0059054
:100420000D92A238B107D9F722E0A2E8B1E001C0ED
:100430001D92AC39B207E1F70E9465100C94D91CEB
:100440000C94000081E0089581E008950E94240248
:10045000089508950E9429020895A5E0B0E0E3E31D
:10046000F2E00C94591C49835A83309189018981A7
:100470009A81311119C0662399F0222389F00E94D4
:100480009907182F682F89819A810E9476076981C0
:100490007A81812F0E94F40D2596E3E00C94751C5F
:1004A0000E948707182FF3CF0E94990769817A81EC
:1004B000F1CFFC01262F40815181628173818481BB
:1004C0000E942D02089581E00895CF93DF93EC01FF
:1004D00060E00E945902BE010E942A02DF91CF9182
:1004E00008950E941C0F08950E94200F08950895FA
:1004F0000E9441060E9477022FEF84E39CE0215086
:1005000080409040E1F700C0000008950E9478020A
:100510000E94781508950E9478020E948915089516
:100520000F931F93CF93DF938C0161E00E945902D8
:10053000EC01B8010E942602811106C080E0DF9123
:10054000CF911F910F910895B801CE010E9417130A
:100550008823A1F3B801CE010E947210882371F3A1
:10056000B801CE010E948912882341F3F8018281EB
:10057000882361F0CB35FDE5DF0701F158F4C115A3
:10058000ECE5DE0791F0CF3DDC4591F0C8010E941B
:100590002202D5CFCD358DE5D80769F090F0C83A65
:1005A000DD45A1F70E948B02C9CF0E948602C6CF0B
:1005B0000E944C0CF7CF0E94910BE8CF0E949B0B3E
:1005C000E5CF0E949F0BE2CF0E94AA140E94010374
:1005D00008950E9405030E94AF14089508950E9493
:1005E000EE02089581E008950E94F20208950895B0
:1005F000CF93C82F0E94EF028C2F0E94F402CF915C
:10060000089580E00E94F80208950E9473130E94EA
:10061000F8020895CF930E947313C82F809184012C
:100620008C1779F0C09384010E943915609385017D
:100630007093860180938701909388018C2F0E948C
:10064000F802CF910895ABE0B0E0E9E2F3E00C945A
:100650005A1C4F83588769877A878B8761110E945C
:10066000DC0A1E821D8285E0FE013796DE011196AE
:1006700001900D928A95E1F78C819D81892B61F41F
:1006800049815A816B817C818D819E810E94050AFE
:100690002B96E2E00C94761C89819A8189238F3F06
:1006A00079F3CE0101960E9463028111E9CFF0CF68
:1006B000FC01808191810E94CB070895CF93C82FC0
:1006C0008823E1F08CEF8C0F813AD0F48C2F0E94BC
:1006D0005212811113C06C2F809100019091010181
:1006E0000E94DA13882329F08C2F0E949C0A0E9412
:1006F000FD0A8C2F0E94940A0E94FD0ACF91089552
:1007000080E28C0F883048F4C77081E001C0880F08
:10071000CA95EAF70E94BF0AEFCFEBE5EC0FE33092
:1007200040F4F0E0E35CFE4F808190E00E949A1379
:10073000E5CFC85AC73110F7EC2FF0E0EE0FFF1FDE
:10074000E15FFE4F808191810E94B013D7CF882353
:1007500039F19CEF980F913A28F40E949C0A0E946C
:10076000FD0A089590E2980F983050F4877091E058
:1007700001C0990F8A95EAF7892F0E94C50AEFCF29
:100780009BE5980F933028F490E080E00E949A1344
:100790000895885A873120F490E080E00E94B013D9
:1007A00008951F93CF93DF93182FEB010E945E03F0
:1007B000209739F4812F0E94A703DF91CF911F91D9
:1007C00008958FE99FE00197F1F700C0000021979D
:1007D000EFCF70E060E0893311F460E570E00E94D3
:1007E000D1030895882321F00E94BF0A0E94FD0AC8
:1007F0000895882321F00E94C50A0E94FD0A0895E9
:10080000B0E0A0E0E6E0F4E00C94531C6C01D62FBD
:10081000C72FFC011281F580F2949FE0F9220E941B
:10082000B50AE82E8823B9F0E12E1123A1F08C2F10
:10083000807F803421F080E28D0F8830D0F080916D
:10084000780282FF16C082E00E94600B0E94B50A07
:1008500091E0E82EE926BC2EB2948FE0B822FBE0AE
:10086000FB1508F468C0EB2DF0E0E552F34E0C9454
:10087000441CE12CF0CF0C2F0F70C07F11F00295BB
:10088000007F112399F0002359F080E28D0F88300A
:1008900010F0D11107C0802F0E94BF0A0E94FD0AEC
:1008A0008D2F41C0802F0E94CF0AF8CF8D2F0E943C
:1008B000A703002309F43FC080E28D0F883010F0B9
:1008C000D11104C0802F0E94C50A03C0802F0E944E
:1008D000D50A0E94FD0A2FC00C2F0F70C07FC032B6
:1008E00011F00295007FDD2381F0D13009F463C05F
:1008F000112309F46DC0FF2009F463C0F60185815E
:1009000080FFCECF8F7085835CC08091780282FD9E
:1009100033C0112359F0002329F0802F0E94BF0A11
:100920000E94FD0A80E00E945E0305C080E00E94F4
:10093000A7030111C7CFEB2DE850FF0B349720F42C
:100940000E9473130E94F802EE2089F00E94B10AFF
:1009500080FD0DC0F60112820E94AB0A0E94D406EF
:10096000C6010E9405060E94AB0A0E94E406CDB7AC
:10097000DEB7E9E00C946F1C112389F0F11006C07A
:100980000E94DF0A802B0E94F203D5CF21E0F212F1
:10099000F7CF0E94DF0A802B0E94E60ACCCFF1102D
:1009A00006C00E94F30A802F0E94F903C4CF31E0F1
:1009B000F31609F2F6CF112331F085E08F1508F414
:1009C000BACF802FE0CF94E09F1508F4B4CFEBCFDF
:1009D000FF2049F3D93349F4FFEF27EE33E0F1501C
:1009E00020403040E1F700C000008D2F0E94A70397
:1009F000A2CF8C2F86958695837069F0813009F09F
:100A00009ACF8D2F9C2F9370111102C090E080E03F
:100A10000E94B01390CF8D2F9C2F9370111102C0A4
:100A200090E080E00E949A1386CF8C2F8370A1F50E
:100A3000111181CF4D2F429546954770440F440FB9
:100A40002D2F2F7030E0042E02C0220F331F0A9486
:100A5000E2F790E080E0D4FF09C08FE090E002C0B0
:100A6000880F991F4A95E2F780959095C695C6958F
:100A7000C370822B932BC23049F058F4C13019F067
:100A80000E94A20658CF0E94990655CF0E94AB063D
:100A900052CF0E9496064FCF8695112311F08C2FCE
:100AA0008170882309F447CF4D2F429546954770B2
:100AB000440F440F2D2F2F7030E0042E02C0220F60
:100AC000331F0A94E2F790E080E0D4FF09C08FE082
:100AD00090E002C0880F991F4A95E2F780959095A3
:100AE000C695C695C370822B932BC23049F058F43B
:100AF000C13019F00E940F071ECF0E9406071BCFBE
:100B00000E94180718CF0E94BA0615CFCF70112384
:100B100029F08C2F0E94D4068D2F35CF8D2F0E9467
:100B2000F9038C2F0E94E40606CFD23F51F160F406
:100B3000D03FB9F0D13F81F0112309F449C0F11041
:100B4000AFCE8C2F8F7121C0D33F11F1D43FA1F7CD
:100B50008091780282FD26C08C2F8F71112311F3B2
:100B600014C0112349F084E08F1508F4E4CE8C2FD3
:100B70008F710E94F606DFCE95E09F1508F4DBCE5C
:100B8000F6CF8C2F8F711111CDCF0E94D406D3CE0A
:100B9000112329F08C2F8F710E94C806CCCE0E94A1
:100BA000C306C9CE112349F0CF718C2F0E94D40601
:100BB00063E08C2F0E94420BBECE81E00E94600B4E
:100BC000E1E0EF1508F0B7CE82E00E94600BB3CEF3
:100BD000F11000CF8C2F8F71A5CF0F931F93CF9360
:100BE000DF93EC01688179818A810E94D6078C01AC
:100BF0000E9421070E949506B801CE010E940004C0
:100C0000DF91CF911F910F910895CF93DF93EC0166
:100C10008B819C81892B29F08881998189238F3F41
:100C200051F4DF91CF910895CE010E94ED05CE01E0
:100C30000E946502F6CFCE010E9490028111F4CF8E
:100C40000E94B50A882369F38A81882351F3809131
:100C5000780282FFE6CF82E00E94600BE2CF90E054
:100C600080E00E949A1390E080E00E94B0130E94FE
:100C7000DC0A0E94FD0A08950E94A40A0E942F0621
:100C800008950E94CC0A0E943C06089592959F7098
:100C9000963091F058F4925F9F70923058F4803FF4
:100CA00019F030F4883E30F481E008959A5FF4CF73
:100CB000843FD1F380E00895883EB0F3813FD1F7BF
:100CC000F3CFFC0183819481892B29F0808191816C
:100CD00089238F3F11F480E00895808191810E94E3
:100CE000CB070E9446060895A5E0B0E0EAE7F6E0EB
:100CF0000C945A1C2596E2E00C94761CA6E0B0E019
:100D0000E4E8F6E00C945A1C2696E2E00C94761C7B
:100D100008950E94880608950E9489069093B10163
:100D20008093B0010E942F06089508950E948C06BA
:100D300008952091B0013091B101822B932B0E9434
:100D40008C0608952091B0013091B1018223932344
:100D50000E948C0608952091B0013091B101822744
:100D600093270E948C0608950E94880608950E9489
:100D7000B40608950E94B7069093AF018093AE0128
:100D80000E942F06089590E080E00E94BA06089520
:100D900021E030E0A90102C0440F551F8A95E2F717
:100DA000CA010E94BA06089521E030E002C0220F75
:100DB000331F8A95E2F78091AE019091AF01822BAB
:100DC000932B0E94BA06089521E030E002C0220F62
:100DD000331F8A95E2F7209530958091AE0190916E
:100DE000AF01822393230E94BA06089521E030E0E8
:100DF00002C0220F331F8A95E2F78091AE019091D5
:100E0000AF01822793270E94BA0608952091AE0170
:100E10003091AF01822B932B0E94BA060895209146
:100E2000AE013091AF01822393230E94BA06089548
:100E30002091AE013091AF01822793270E94BA061C
:100E400008950895262F277091E001C0990F2A95E3
:100E5000EAF723E0769567952A95E1F7660F771F05
:100E6000660F771FFA01E60FF71F50E040E0682F8A
:100E700070E08191DF0111979B01042E02C036952D
:100E800027950A94E2F721702195282729232827FE
:100E90002C934F5F5F4F4430510559F70895A82FA9
:100EA000A77023E0969587952A95E1F7880F991FFB
:100EB000880F991FFB01E80FF91F50E040E080E028
:100EC000219130E00A2E02C0369527950A94E2F768
:100ED00021703327042E01C0220F0A94EAF7822BD7
:100EE0004F5F5F4F4430510559F70895262F9930D1
:100EF00068F4883058F438E0939FB0011124680FEB
:100F0000711D4AE851E0822F0E942207089599300E
:100F100070F4883060F448E0949F900111246AE8EE
:100F200071E0820F932F911D0E944F07089580E07A
:100F30000895B0E0A0E0EFE9F7E00C94531C7C01C9
:100F40000091AE011091AF018091B0019091B1017B
:100F5000082B192BCFE0D0E0CC24C394D12CBC2E8D
:100F6000C6010C2E02C0880F991F0A94E2F7802355
:100F70009123892B49F4219790F7B12C8B2DCDB774
:100F8000DEB7E9E00C946F1CB7018C2F0E94100EA5
:100F9000019789F3F3CFCF93DF93EC010E94990778
:100FA000BE010E94100EDF91CF9108951F93CF9341
:100FB000DF93EB0190918901992339F0CB010E94D5
:100FC000CB07DF91CF911F910895882369F0CB0162
:100FD0000E949907182F682FCE010E947607BE0144
:100FE000812F0E94100EEDCFCB010E948707182F92
:100FF000F6CF1F93CF93DF93C091B20116E080919B
:10100000B3018C1304C0DF91CF911F910895D0E0FC
:101010001C9FF0011D9FF00D1124EC54FE4F4081E8
:10102000518162817381848195810E947E0621961F
:10103000C770E5CF4091E4015091E5016091E60170
:101040007091E7018091E8019091E9010E947E068C
:1010500008951F93CF93DF938091E901807F09F07A
:1010600049C08091E601882309F444C08091B2010F
:10107000C091B3016091E4017091E501A091E70195
:10108000B091E801D62FD72316E0C81799F190E068
:10109000109711F0DF3F19F401968770F6CF189F73
:1010A0009001199F300D1124F901EC54FE4F41813C
:1010B0004713F2CF40814613EFCF42814111ECCF6D
:1010C000438154814A1B5B0B483C510528F78091B2
:1010D000E9018F7080618093E901F901E754FE4FC7
:1010E00080818F708061808384EE91E00E9405068C
:1010F0000E94F907DF91CF911F910895A1E1B0E01F
:10110000E4E8F8E00C94521C8C0185E0F801DE0163
:101110001D9601900D928A95E1F7F801E28084EE28
:10112000C82E81E0D82E6091E7017091E801611529
:10113000710509F44EC19091E4012091E501892FD8
:1011400082238F3F09F445C140815181A380B4803F
:10115000F090E601F501E61BF70BFF2009F4EAC069
:101160008091E901382F307FE83CF10508F0A3C0F9
:1011700031116DC0FE2C251316C0941314C0E1105C
:1011800012C08F7080618093E9010E941A08C60125
:101190000E9405068091E901F80185838F2D6196F3
:1011A000EAE00C946E1CA114B10429F0842F85236D
:1011B0008F3F09F027C180E0F82FF170DF2E80FF0C
:1011C0003CC08091B2012091B30136E0821315C07A
:1011D0004D875E878D859E850E94CB07292F22959E
:1011E0002F702230F0F0243018F59F70F1F0F801E4
:1011F0009581907FD1F4D12C1EC090E0389FF001F2
:10120000399FF00D1124EC54FE4F6181651306C027
:101210006081641303C06281E6120FC0019687707B
:10122000D5CF9F7011F0882331F3805E883018F39A
:10123000C8010E940506FD2CB1CFEE2009F4AECF07
:101240008091E90181608093E901F12CA7CF2513FA
:1012500006C0941304C0F801EE2009F487C0C80149
:101260000E946106882319F1EE2009F18091E901BD
:10127000803270F02091E4013091E50138872F83AE
:101280001986BB86AA868C87CE0107960E94050622
:1012900086E0F801A4EEB1E001900D928A95E1F7A5
:1012A0000E9429080E941A08FF24F39477CFC801EE
:1012B0000E940506F9CF311113C07A2DB98AA88A88
:1012C0006E2D89890E94740684EE91E00E940506C5
:1012D00086E0F60111928A95E9F70E941A08B5CFC7
:1012E00025130FC094130DC0E1100BC0F8018583C6
:1012F000C8010E94050686E0F60111928A95E9F779
:101300004DCFC8010E946106882389F2EE2079F250
:101310008091E901803208F4BBCF2091E401309143
:10132000E5013A8329831B82BD82AC828E83CE0184
:101330000196ACCFE83CF10508F03EC0FE2CEE2053
:1013400009F4B5CF25132AC0941328C08091E90170
:1013500080FD1BC0982F907FC1F0F8018583903FDE
:1013600031F0982F907F905F8F70892B8583C80113
:101370000E94050686E0F801A4EEB1E001900D920E
:101380008A95E1F70E941A0809CF86E0F801A4EED9
:10139000B1E001900D928A95E1F700CFC8010E945B
:1013A0006106811175CF8091E90181608093E90127
:1013B000C8010E940506F2CE7A2DB98AA88A6E2D40
:1013C00089890E94740686E0F60111928A95E9F7F0
:1013D000D9CFEE2009F46BCFC8010E946106F82E28
:1013E000882309F464CF86E0F801A4EEB1E001900F
:1013F0000D928A95E1F784EE91E00E9458030E94D5
:101400002908C0CF81E08E25D7CEACE0B0E0EBE07C
:10141000FAE00C94591C4F83588769877A878B8729
:101420009C87CE0107960E947E08882369F08A85F2
:101430009B85892B39F04F815885842F85238F3FD9
:1014400009F06BC016E05FC086E0FE013796DE0152
:10145000119601900D928A95E1F78A859B85892BDB
:1014600089F388859F8189238F3F61F32091B301A0
:1014700030E0C9010196877099274091B201481761
:10148000190671F40E9441061092B3011092B20144
:1014900086E0E4EEF1E0DF011D928A95E9F7D2CF14
:1014A00096E0929FD001939FB00D1124AC54BE4F93
:1014B000FE01319601900D929A95E1F78093B30168
:1014C0000E94F907BFCF819FC00111248C549E4F09
:1014D0000E947E088823E9F0E091B2011E9FF0018E
:1014E0001124EC54FE4F40815181628173818481CB
:1014F00095810E947E068091B20190E001968770EE
:1015000099278093B2018091B2019091B301891320
:10151000DACF2C96E3E00C94751C69857A858B856F
:101520009C850E947E068ECF682F8091000190914D
:1015300001010E945A140895682F80910001909132
:1015400001010E94681408958091000190910101A9
:101550000E947614089580910A0285958595859557
:10156000089580910A028770089590910A029770F9
:1015700081E009F480E0089580912D020895909112
:101580002D02892B80932D020895809590912D0234
:10159000982390932D02089510922D020895909112
:1015A0002C02892B80932C020895809590912C0217
:1015B000982390932C02089510922C020895809104
:1015C0000B02089508950E94E20A0895909178020E
:1015D00092FF08C090910B02981721F080930B02A4
:1015E0000E94E30A089580910B02882329F010924B
:1015F0000B0280E00E94E30A0895CF93DF93E0910D
:101600000001F091010180912D028083E0910001A1
:10161000F0910101808190912C02892B808390911F
:101620000B02992381F0E0910001F091010180818A
:10163000892B808380910001909101010E94C61343
:1016400081110E94F30AC0910001D091010140E292
:1016500050E06AEE71E0CE010E94811C892B59F0A6
:1016600080E2FE01AAEEB1E001900D928A95E1F7C9
:10167000CE010E948013DF91CF91089508950E94BA
:101680003E0B08959091780292FF11C098E0899FD7
:1016900090011124622B60930A020E94D40680916B
:1016A0000A028595859585950E943F0B08950E94B5
:1016B000D406089510920A0280E00E943F0B08951C
:1016C00090910A028095892380930A02282F27701F
:1016D00091F4282F082E000C330B9217130659F0A3
:1016E0009091780292FF07C08595859585950E9417
:1016F000E4060E945A0B08959091780292FB2227EB
:1017000020F9281769F080FB92F990937802809174
:101710007702909178020E94C60B82E00E94600BD3
:1017200008958091780282FB882780F991E08927CB
:101730000E947C0B089581E00E947C0B089580E05C
:101740000E947C0B089590E080E00E949F1C21E0A5
:10175000883E9E4F09F020E0822F089582E090E0BD
:101760000E94971C089583E090E00E94971C0895C2
:10177000CF9384E090E00E94971CC82F82E290E013
:101780000E94971C982F8C2FCF910895CF93C92F2B
:10179000682F84E090E00E94A51C6C2F82E290E00C
:1017A0000E94A51CCF910895AB01BC018FE090E091
:1017B0000E94B71C0895AB01BC0183E190E00E9438
:1017C000B71C089560E070E0CB010E94DB0B089528
:1017D00060E070E0CB010E94D40B0E94E20B089500
:1017E00068EE7EEF90E080E00E94C31C60E082E043
:1017F00090E00E94A51C60E083E090E00E94A51CA0
:101800001092B1011092B00160E084E090E00E947B
:10181000A51C64E082E290E00E94A51C60E085E0E7
:1018200090E00E94A51C60E086E090E00E94A51C6C
:101830006FEF87E090E00E94A51C40E050E0BA0105
:1018400088E090E00E94B71C60E08DE090E00E948C
:10185000A51C40E050E0BA0188E190E00E94B71C6E
:1018600060E087E190E00E94A51C40E050E0BA01F2
:101870008CE190E00E94B71C70E060E080E290E0B4
:101880000E94C31C40E050E0BA0188E190E00E9451
:10189000B71C0E94E80B08950E94F00B0895682F72
:1018A0008EE090E00E94A51C08950E943915609377
:1018B0003D0270933E0280933F02909340026093FA
:1018C000390270933A0280933B0290933C02089550
:1018D000089508950E94690C089508950E946D0C62
:1018E00008958AEF9EE00E9469130E94680C0E948E
:1018F0006A0C089581E008950E947A0C0895089575
:1019000008950E947F0C0E94800C08950E94FD0E95
:101910000E94F70208950E9424150E94C80F0E9499
:10192000860C0E946E0C0895AAE0B0E0EAE9FCE0A3
:101930000C94521C0E94DE0F80E3A82E82E0B82E89
:10194000750110E0F70101917F01812F0E94230FA3
:101950001F5F193009F440C00817A1F380914102BC
:1019600081FD0E94290F0E947C0CC82E10E0812F5F
:101970000E94230F082FF50181915F01081731F1B3
:10198000F12CEE24E394D02ED8268D2D8E21B1F0AB
:10199000CC20A1F0FE821F8391E0802F8E2109F4DC
:1019A00090E098870E942D158160782F9A8789870B
:1019B0004E815F8168858A850E942303F394EE0C33
:1019C000F8E0FF12E2CFF501319700831F5F193075
:1019D00071F60E94550C20C00813C0CF0E942D152F
:1019E0008C0180912E0290912F0208171907A1F007
:1019F0008FEF89838A831B820E942D158160782F47
:101A00009D838C8349815A816B818D810E94230340
:101A100010932F0200932E020E940A032A96EAE0F6
:101A20000C946E1CCF93DF930E94150EEC01811570
:101A300022E59207E8F5811531E5930708F0A3C088
:101A4000883E910510F5803E910570F5883A910524
:101A500070F4853A910508F078C08130910521F144
:101A6000009711F1049700F5D0E0C0E01DC08F3B56
:101A70009105D0F7C85AD0E0CC0FDD1FC05CDE4F17
:101A80000990D881C02DD4640FC0811540E594071A
:101A900008F066C0C11580E4D80708F05EC0CE012A
:101AA0009A9581159F4100F7CE01DF91CF9108955E
:101AB000811536E5930718F5811545E5940708F07B
:101AC0007BC0C11584E5D80708F071C09E01237062
:101AD00033279C2F96959695C115D34508F458C089
:101AE000C1E0D0E002C0CC0FDD1F2A95E2F730E262
:101AF000939FC0011124C82BD92BDA68D5CFC1150B
:101B00008AE5D80778F4C11529E5D20708F05EC048
:101B1000C11538E5D30708F4A7CFDC2FCC27C06F59
:101B2000D06AC2CFCE0190568115904208F09CCF6A
:101B30008D2F8F710E94B70E90E0982F88278827ED
:101B40009F719C012C2BE9013FC0C55AD0E0C259BE
:101B5000DE4FC881D0E0D064A7CFDF70D06AA4CFB9
:101B60008370992721E030E002C0220F331F8A954D
:101B7000E2F7C695C69580E2C89FE0011124C22B0A
:101B8000D32BDD6891CFD82FCC27C16FD06A8CCFF3
:101B9000C1E0D0E002C0CC0FDD1F2A95E2F720E2C1
:101BA000929FC0011124C82BD92BDC687DCFDC2F7C
:101BB000CC27C46FD06A78CF0E94B70EC82FD0E070
:101BC000DC2FCC27CC27DF71D0626ECF8C2F8F70AB
:101BD0000E94B70E34E0D695C7953A95E1F7CF70DD
:101BE0009C2FEC01D06960CF7930B8F46830A8F44C
:101BF000E72FF0E099E0899FE00DF11D112483E0CB
:101C0000EE0FFF1F8A95E1F7E60FF11DEE0FFF1FA4
:101C1000E455FF4F85919491089580E090E00895F8
:101C20000E94F40D0E94120D089582389105B9F1B9
:101C3000B0F48133910509F47DC048F489329105EF
:101C400009F46DC08A32910509F47BC0089585338B
:101C5000910509F45FC08933910509F10895833E28
:101C60009105D9F138F4803E910529F1823E910524
:101C700079F10895863E9105D9F1873E910509F4E1
:101C80003EC0843E910541F52091780221FF24C099
:101C90008091770284FD19C087EE90E0089520912D
:101CA0007702237009F05AC02091780223FF14C0F4
:101CB00089E290E008952091770220FD38C03091AC
:101CC000780230FF09C024FF43C090E080E008950F
:101CD0002091770222FDF7CF08952091770222FD0F
:101CE0003AC03091780230FD39C024FFF5CFEDCFF6
:101CF0002091770223FFF0CF24FDE7CFCDCF2091B5
:101D0000770223FD2EC03091780231FFEECF84EEB2
:101D100090E008952091770225FFDECFC9CF209172
:101D2000770225FD21C02091780223FFD5CF89E3DA
:101D300090E0D2CF2091770226FFCECF8AE290E0CA
:101D400008952091770226FFC7CF81E390E00895A0
:101D500083EE90E0089582EE90E0089580EE90E0AA
:101D6000089586EE90E0089585E390E008959091BF
:101D7000770292FF06C0282F28712830F9F4877F58
:101D8000846093FF06C0282F28712831F1F4877EE4
:101D900084612091780220FF06C0382F38713830D6
:101DA000D9F4877F816021FF06C0282F2871283150
:101DB000D1F4877E816194FD877E0895282F247158
:101DC0002430F9F68B7F8860DCCF282F24712431F2
:101DD00001F78B7E8861DDCF382F3171313019F7F3
:101DE0008E7F8860E0CF282F2171213121F78E7EF0
:101DF0008861E1CF80E0089508950E94A30B8111CE
:101E000002C00E944C0C0E94AE0B809341020E94C3
:101E1000B80B90937802809377020E94FC0E0E9488
:101E2000B30B90E00E9496068091AE019091AF01B5
:101E30000E94B706089508950E941B0F0895089503
:101E40000E941F0F0895E82FF0E0EE57FD4F8081AC
:101E50000895089580EA8A95F1F7089500C00895DD
:101E60000E942A0F0895F894E82FE295EF70F0E0B1
:101E700031A1282F2F7081E090E001C0880F2A95B2
:101E8000EAF7982F9095932391A392A1892B82A38F
:101E9000789408950F931F93CF93DF93C9E7D1E010
:101EA00089918F3F11F00E94330F81E0C238D8072B
:101EB000B9F7C1E7D1E009E711E089918F3F11F04F
:101EC0000E94330F0C171D07C1F7DF91CF911F91AF
:101ED0000F910895B0E0A0E0E0E7FFE00C94541CFF
:101EE000EC01D62E062F10E0C80187589E4F7C01CA
:101EF000FC0180818F3F09F444C0F894E82FE295FB
:101F0000EF70F0E091A18F7021E030E001C0220F6E
:101F10008A95EAF7892F822B81A382A12095282315
:101F200022A378940E942E0FE1E7F1E031E0C12C6A
:101F300021912F3F59F1A22FA295AF70B0E090965A
:101F40008C9190E02F7002C0959587952A95E2F7C5
:101F500080FD1CC0832FC82A330F81E0E937F807C2
:101F600039F7F70180818F3F11F00E94330F61E054
:101F7000C11001C060E08D2D0E94300FC00FD11F35
:101F8000C882CDB7DEB7E8E00C94701C80E0E3CFE8
:101F90000E944A0F89E0E2E8F2E0DF01982F1D92EB
:101FA0009A95E9F7E9E7F2E0DF011D928A95E9F7F2
:101FB00089E00E9419100E9471020895A9E0B0E022
:101FC000E4EEFFE00C94571C8E010F5F1F4F89E079
:101FD000F80111928A95E9F7F12C6F2DC8010E9442
:101FE0006A0FF394F9E0FF12F8CF49E050E0B8012E
:101FF00089E792E00E94811C21E0009709F420E02B
:10200000892B41F089E0F801A9E7B2E001900D9237
:102010008A95E1F749E062E872E089E792E00E9480
:102020001A10182F0E947402812F2996E5E00C9453
:10203000731C0895CF92DF92EF92FF920F931F933C
:10204000CF936C017B01042F222349F081E0809320
:1020500044020E942D159093430280934202C09146
:102060004402C1110AC0C0E08C2FCF911F910F9183
:10207000FF90EF90DF90CF90089580914202909171
:1020800043020E944515059770F310E0A801B601C0
:10209000C7010E94811C892B41F0A801B601C7012C
:1020A0000E948E1C10924402DFCFC0E0FBCF0E9442
:1020B0001F170E948B0C0E942C1708950E94311745
:1020C0000E94940C0E944B1708950E94C6140E940F
:1020D00005170E94710C0E9457100E945E100E940A
:1020E000810CFBCFCF93DF93EC01FB01828188232E
:1020F00009F464C1C430FDE5DF07E0F5CB3F9CE5A2
:10210000D90730F49E0122503C4524313105D8F5E1
:102110000E94B80B9093780280937702C231ECE56D
:10212000DE0709F41FC108F06EC0C9308CE5D8077E
:1021300009F4F2C008F03FC0C530ECE5DE0709F451
:10214000DBC058F5C3308CE5D80709F4CDC008F0E2
:10215000CFC0809177028160C230DC4509F4AEC007
:1021600080917702909178020E94C60B0E944106EE
:1021700080E009C0C63AEDE5DE0751F238F4C23618
:102180009DE5D90729F2DF91CF9108959E012E5A3E
:102190003D4523303105B8F7BBCF8091770280628F
:1021A000C730FCE5DF0709F489C008F4B1C08091AD
:1021B0007702806483C0CD309CE5D90709F4BAC0AA
:1021C00070F4809177028E7FCB30FCE5DF0709F455
:1021D00075C008F4A7C0809177028D7F6FC0CF30A3
:1021E0009CE5D90709F4B6C008F4A8C0C031FCE5E5
:1021F000DF0709F4B3C0C131DC4509F0B1CF8091EC
:1022000077028F7B5BC0C1159DE5D90709F4B4C087
:1022100098F5CB3FFCE5DF0709F472C0B8F4C43190
:102220009CE5D90709F4B6C008F4A2C0C531DC4565
:1022300009F096CF8091770282FB992790F921E0EF
:10224000922790FB82F990FB83F938C0CD3F8CE553
:10225000D80709F477C008F457C0CE3FECE5DE0795
:1022600009F474C0809178028360CF3FDC4509F0A7
:1022700077CF8093780274CFC2368DE5D80709F402
:1022800096C068F4C230EDE5DE0709F48CC008F4AE
:1022900077C0C330DD4509F063CF80E085C0CE3A1A
:1022A0009DE5D907E9F068F490917702892F8E7F38
:1022B00090FF8160C63ADD4509F052CF80937702E6
:1022C0004FCFCF3A8DE5D80789F1C03BDD4509F006
:1022D00047CF90917802892F877F93FF8860C9CF7D
:1022E000809178028860C5CF809177028260E6CFC6
:1022F000809177028460E2CF809177028860DECFA0
:10230000809178028160B5CF809178028260B1CFF0
:10231000809177028061D2CF0E944106809177023E
:102320008068CCCF809177028C60C8CF8091780292
:10233000877F9FCF809177028B7FC0CF809177027C
:10234000877FBCCF809178028E7F93CF8091780277
:102350008D7F8FCF809177028F7EB0CF8091770273
:102360008F7DACCF0E944106809177028F77A6CFF8
:1023700080917702837FA2CF809178028C7F79CF82
:1023800080917802982F909591708E7F892B90FB89
:1023900081F96FCF0E94410690917702892F97FBB8
:1023A00087F980588BCF81E00E944F0CD9CE909155
:1023B0007702892F8F7E94FF806180CF81E0E3CE0A
:1023C000EBEFE80FEF3308F066C0F0E0E951F34EB1
:1023D0000C94441C0E944C0C81E0089580914102B1
:1023E000807F8093410281E08093450208950E949E
:1023F0008602F2CF90914102892F8E7F90FF8160FB
:102400008093410280FDE8CF817F80934102E4CF39
:1024100090914102892F8D7F91FF826080934102CC
:1024200081FFDACF809141028160EFCF909141022C
:10243000892F8B7F92FF84608093410282FDF2CFCF
:10244000CBCF90914102892F877F93FF8860809343
:10245000410283FDE7CFC0CF0E94410690917702F1
:10246000892F97FB87F9805880937702B5CF81E059
:1024700090E00E9496060E944106AECF895321E06B
:1024800030E0A90102C0440F551F8A95E2F7CA0146
:10249000F0CF8D51F4CF80E0089580E008950E9440
:1024A0004D120895CF93C82F80914502882331F0B3
:1024B000813099F01092450280E00DC00E94BC0A64
:1024C0008232D1F78C2F0E944D12811116C08C2FB1
:1024D0000E94E0118170CF9108950E94BC0A82325F
:1024E00089F38C2F0E944F12811105C0C43171F005
:1024F00038F4CB3079F781E0EDCF81E090E0EACF9E
:10250000C93221F0C833B9F380E0E4CF109245021C
:10251000FBCFCF93DF93EB0186319C4511F50E94F1
:10252000BC0A9A81992399F08A7A91E009F490E0A3
:1025300090934602811109C089E20E94940A0E9488
:10254000FD0A80E0DF91CF91089585E3F6CF809179
:102550004602811104C089E20E949C0AF0CF85E303
:10256000FBCF81E0EFCF0F931F93CF93DF93C42F67
:10257000D22FFC0182818823C9F0409349020E9436
:102580002D15909348028093470280E28C0F88308B
:1025900040F4C77081E001C0880FCA95EAF70E9435
:1025A000F203DF91CF911F910F910895109149028D
:1025B000141332C080914702909148020E94451541
:1025C000883C910548F5C0E2CD0F1D17B9F080E2B7
:1025D000810F883040F4177081E001C0880F1A9590
:1025E000EAF70E94F903C83048F481E09D2F977004
:1025F00001C0880F9A95EAF70E94F203802F0E948B
:10260000E903C83070F6D77081E001C0880FDA9511
:10261000EAF70E94F903C5CF80E28C0F883008F6F4
:10262000C77081E001C0880FCA95EAF7F2CF0F9317
:102630009C01CB01243F4CE5340759F1A8F4293D16
:10264000FCE53F0701F12A3D4CE53407D1F1283D77
:102650003C4591F406E221EE41EE68ED7CE50E94F6
:10266000B31280E00F910895263FFCE53F07E9F0A3
:10267000B0F0273F3C45F9F0FC018281882339F115
:1026800010924902EFCF07E225EE45EE69ED7CE5B9
:10269000E6CF06E221EE40EE64EF7CE5E0CF07E214
:1026A00025EE44EE65EF7CE5DACF06E221EE42EE60
:1026B00066EF7CE5D4CF07E225EE46EE67EF7CE5DA
:1026C000CECF08E221E045EE6AED7CE5C8CF81E09F
:1026D000C9CF9093830180938201089590934F0214
:1026E00080934E020895E0914E02F0914F02309790
:1026F00029F00190F081E02D0995089580E008957A
:10270000E0914E02F0914F02309799F020910E0126
:10271000222359F02091770227FF07C0DC012C917A
:1027200011962C93119726E02C930280F381E02DD3
:102730000995089520914C0230914D0228173907D0
:1027400071F090934D0280934C02E0914E02F09113
:102750004F02309721F00680F781E02D099508950A
:1027600020914A0230914B022817390771F090935B
:102770004B0280934A02E0914E02F0914F02309753
:1027800021F00084F185E02D09950895FC01329631
:1027900080910E01882321F0809177029EE187FFCE
:1027A00096E080E0915008F4089521912223D1F31E
:1027B0008F5FF8CF662301F120910E012223F1F003
:1027C0002091770227FF1AC0462F469546954695D9
:1027D0004E3190F4677021E030E002C0220F331FC9
:1027E0006A95E2F7840F911DFC01828190E0282315
:1027F000392381E0232B69F480E00895FC013296AF
:1028000008962191261721F0E817F907D1F7F4CFA0
:1028100081E008959C01FC0132969FEF80E0419198
:10282000461751F09F3F19F4411101C0982F8F5F57
:102830008630A9F79F3F09F40895290F311D97FDB0
:102840003A95F90162830895FC0132960896219128
:10285000261303C0DF0111971C92E817F907B9F797
:102860000895E62FE695E695E695EE3168F4E80FD3
:10287000F92FF11D677021E030E001C0220F6A9549
:10288000EAF78281822B82830895E62FE695E6950A
:10289000E695EE3170F4E80FF92FF11D677021E035
:1028A00030E001C0220F6A95EAF720958281282343
:1028B0002283089520910E01222339F0209177027E
:1028C00027FF03C00E94311408950E940A1408953E
:1028D00020910E01222339F02091770227FF03C0B7
:1028E0000E94451408950E9424140895FC01329614
:1028F00080910E01882351F08091770287FF06C0F6
:102900008EE1DF011D928A95E9F7089586E0F9CFFF
:1029100008950E9488140895811106C081E0809373
:1029200050020E948914089582E0F9CF83E08093D9
:1029300050020E94891408950E948C14089581E029
:10294000809350020E94891408950E949F14089554
:10295000089508950E94A9140895089508950E9465
:10296000A8140895CF930E94AD140E94DE0F0E9418
:10297000AE14C0E08C2F0E94230F811105C0CF5FE1
:10298000C930C1F7CF91089581E0FCCF85B7806849
:1029900085BF85B7806885BF08951F921FB61F92B7
:1029A00011248F939F93AF93BF9380915102811114
:1029B00013C080918B0290918C02A0918D02B091F6
:1029C0008E024196A11DB11D80938B0290938C02C3
:1029D000A0938D02B0938E02BF91AF919F918F9182
:1029E0001F901FBE1F90189580919302843031F183
:1029F0000E94E4021092510288E190E020E40FB6B8
:102A0000F894A895809360000FBE2093600083B770
:102A1000817F846083BF83B7816083BF789488950A
:102A200083B78E7F83BF0FB6F894A895809160001E
:102A3000886180936000109260000FBE08950E942C
:102A400041060E94E902089582E084BD93E095BDAD
:102A50009AEF97BD80936E0008952FB7F8948091F8
:102A60008B0290918C02A0918D02B0918E022FBFAB
:102A700008952FB7F89460918B0270918C02809129
:102A80008D0290918E022FBF08959C014FB7F8944C
:102A900080918B0290918C02A0918D02B0918E0258
:102AA0004FBF821B930B089578941F921FB61F92FD
:102AB00011248F939F93AF93BF9380918B0290913A
:102AC0008C02A0918D02B0918E020196A11DB11DC4
:102AD00080938B0290938C02A0938D02B0938E0210
:102AE000BF91AF919F918F911F901FBE1F9018951E
:102AF00087E797E7909301088093000888E19AE0C0
:102B00000FB6F894A895809360000FBE9093600074
:102B1000FFCF88E19AE00FB6F894A8958093600003
:102B20000FBE90936000FFCF8091750208950895C5
:102B3000CF93DF93EC0180910E018823B1F1809156
:102B4000770287FF32C060E282E08093E9008FEF76
:102B50009091E800815095FD06C095ED9A95F1F7AA
:102B600000008111F5CF8091E80085FF1BC08091A6
:102B70000E0170E050E040E0811104C050E040E000
:102B800068E070E0CE010E94BD178091E8008E776A
:102B90008093E80080E2FE01A5E5B2E001900D928D
:102BA0008A95E1F7DF91CF91089568E081E0CDCF7C
:102BB0008093520270935402609353028091930267
:102BC000843001F582E08093E9008FEF9091E80076
:102BD000815095FD06C095ED9A95F1F700008111A1
:102BE000F5CF8091E80085FF0DC050E040E063E044
:102BF00070E082E592E00E94BD178091E8008E7738
:102C00008093E8000895BC0184E00E94D8150895DF
:102C1000BC0183E00E94D815089508958091920226
:102C2000811109C00E944D190E94AA198091E200E9
:102C300084608093E20008951092920208950E94A9
:102C40009F14089560918F0281E0611101C080E0BE
:102C50000E94961408959091930281E0943009F0B7
:102C600080E060918F020E949C14089542E061EC24
:102C700081E00E94C91842E261EC82E00E94C9181A
:102C80009091930281E0943009F080E060918F028E
:102C90000E948C14089580919502833009F461C0DC
:102CA00030F48130D1F1823009F49EC008958A3029
:102CB00009F48AC08B3009F46FC0893009F050C024
:102CC00080919402813209F04BC0809198029091DA
:102CD0009902029708F044C08091E800877F8093B2
:102CE000E8008091E80082FF37C09091F300809166
:102CF000F200029731F48091F100813011F08630BA
:102D000021F48091F100809375028091E8008B7727
:102D10008093E8000E94FD1823C080919402813ABC
:102D2000F9F48091E800877F8093E8008091980211
:102D300090919902892B61F460E285E592E070E060
:102D40000E940C188091E8008B778093E80008952A
:102D500060E090E080E0F3CF809193028111C1CFD9
:102D6000089580919402813AD9F7809198029091C8
:102D70009902892BA9F78091E800877F8093E8006A
:102D80008091E80080FFFCCF80910E018093F100DC
:102D90008091E8008E77BCCF80919402813201F758
:102DA0008091980290919902892BD1F68091E80048
:102DB000877F8093E8000E94FD188091960280939F
:102DC0000E010E944106089580919402813241F6DD
:102DD0008091E800877F8093E8000E94FD18809131
:102DE000970280937602089580919402813A09F0C7
:102DF000B7CF8091E800877F8093E8008091E8005A
:102E000080FFFCCF80917602C1CF84B7877F84BFDB
:102E10000FB6F894A8958091600088618093600057
:102E2000109260000FBE80E890E00FB6F894809397
:102E30006100909361000FBE0E94A51408950E9446
:102E40004D190E94AA19E2EEF0E08081846080832F
:102E500078940E94291C089582E091E00E946E13EC
:102E6000089580919302853031F4809193028530EA
:102E700019F00E941F1508950E94F4148091910288
:102E8000882399F30E94B214882379F30E94A7172C
:102E90000E944106EACF08950E944F170895292FF6
:102EA00033272330310519F168F42130310509F455
:102EB00044C02230310509F445C090E080E030E0A4
:102EC00020E025C02132310549F122323105A9F730
:102ED00080E490E026EC33E061157105C1F08DE6E9
:102EE00090E029E533E06130710589F0E6CF99275C
:102EF0008130910581F0009729F00297F1F6ECEE10
:102F0000F2E002C0E8E0F3E0849190E09F01FA0172
:102F1000318320830895ECEFF2E0F6CF89E090E072
:102F20002EE133E06115710591F389E090E027E32C
:102F300033E06130710559F3C0CF82E190E027E4BE
:102F400033E0E5CF8BE390E02CE033E0E0CF80E1AD
:102F500089BD82E189BD09B400FEFDCF8091D80012
:102F60008F7D8093D8008091E00082608093E000A4
:102F70008091E00081FDFCCF0895AF92BF92CF9287
:102F8000DF92FF920F931F93CF93DF936C01EB01BE
:102F90008A010E941C19F82E811123C00115110508
:102FA00039F0F80180819181C81BD90BC80ED91E58
:102FB000B12CA12C2097A9F08091E80085FD22C0BA
:102FC0008091E8008E778093E80001151105A1F04B
:102FD000F80180819181A80EB91EB182A08285E09E
:102FE000F82E8F2DDF91CF911F910F91FF90DF90E1
:102FF000CF90BF90AF9008950E941C198823D1F202
:10300000F82EEFCFF60181916F018093F1002197A7
:10301000FFEFAF1ABF0ACECFFC0180919A029091C8
:103020009B0286179707A0F06115710529F490910E
:10303000E8009E779093E80090E06115710551F4E7
:10304000911108C08091E80082FF34C080E00895AB
:10305000BC01F2CF809193028823C1F18530C1F188
:103060008091E80083FD30C08091E80082FDEACFC6
:103070008091E80080FFE1CF8091F3002091F20081
:10308000382F6115710519F02830310558F091E09D
:103090002830310509F090E02091E8002E77209348
:1030A000E800CBCF81918093F100615071092F5FCF
:1030B0003F4FE7CF80919302882341F0853041F064
:1030C0008091E80083FFBECF81E0089582E00895FB
:1030D00083E00895FC0180919A0290919B028617EB
:1030E0009707A0F06115710529F48091E8008E77AB
:1030F0008093E80090E06115710551F4911108C0CA
:103100008091E80082FF35C080E00895BC01F2CFD5
:10311000809193028823C9F18530C9F18091E8003C
:1031200083FD31C08091E80082FDEACF8091E80004
:1031300080FFE1CF8091F3002091F200382F6115DC
:10314000710519F02830310558F091E0283031052B
:1031500009F090E08091E8008E778093E800CBCF73
:1031600084918093F1003196615071092F5F3F4F38
:10317000E6CF80919302882341F0853041F0809121
:10318000E80083FFBDCF81E0089582E0089583E0E9
:103190000895982F973028F08F708093E90081E090
:1031A00008959093E900242F762F50E0981731F07E
:1031B0007091EC002091ED005091F00021FD02C0D3
:1031C0009F5FE8CF3091EB003E7F3093EB00309172
:1031D000ED003D7F3093ED003091EB003160309396
:1031E000EB007093EC002093ED005093F0002091E1
:1031F000EE0027FDE5CF80E008958091940287FFDF
:1032000013C08091E80082FF06C08091E8008B77B0
:103210008093E80004C0809193028111F2CF089559
:10322000809193028823D9F38091E80080FFF8CF42
:103230008091E8008E77ECCF2091E4003091E5009A
:1032400095E6A9012091EC00822F817020FF06C035
:103250008091E80080FF06C080E008952091E8009A
:1032600022FD1AC080919302882389F0853089F06D
:103270008091EB0085FD0FC02091E4003091E500C6
:1032800042175307F9F29150E1F684E0089582E085
:10329000089583E0089581E008950E94BC190E947A
:1032A000C419E0EEF0E0808181608083E8EDF0E019
:1032B00080818F77808319BCA7EDB0E08C918E7FE1
:1032C0008C9380818F7E80831092920208950F9359
:1032D0001F93CF93DF930E94BC190E94C419C8EDBD
:1032E000D0E088818F77888388818068888388810F
:1032F0008F7D888319BC1092930210928F021092D6
:1033000091021092900200EE10E0F80180818B7F14
:10331000808388818160888342E060E080E00E9451
:10332000C918E1EEF0E080818E7F8083E2EEF0E06C
:10333000808181608083808188608083F8018081C2
:103340008E7F8083888180618883DF91CF911F91F8
:103350000F910895E8EDF0E080818F7E8083E7EDA6
:10336000F0E080818160808384E082BF81E080938F
:1033700092020E9467190895E8EDF0E080818E7F47
:1033800080831092E20008951092DA001092E1001A
:1033900008951F920F920FB60F9211242F933F930F
:1033A0004F935F936F937F938F939F93AF93BF934D
:1033B000EF93FF938091E10082FF0BC08091E200C8
:1033C00082FF07C08091E1008B7F8093E1000E9423
:1033D000281C8091DA0080FF19C08091D80080FFFE
:1033E00015C08091DA008E7F8093DA008091D90039
:1033F00080FF96C080E189BD82E189BD09B400FEED
:10340000FDCF81E0809393020E940E168091E1002F
:1034100080FF19C08091E20080FF15C08091E2001A
:103420008E7F8093E2008091E20080618093E200D1
:103430008091D80080628093D80019BC85E0809389
:1034400093020E9422168091E10084FF2BC080919C
:10345000E20084FF27C080E189BD82E189BD89B592
:10346000982F917080FFFBCF8091D8008F7D809343
:10347000D8008091E1008F7E8093E1008091E2008E
:103480008F7E8093E2008091E20081608093E20071
:1034900080918F02882309F449C084E080939302CD
:1034A0000E942B168091E10083FF29C08091E200E9
:1034B00083FF25C08091E100877F8093E10082E057
:1034C0008093930210928F028091E1008E7F80930F
:1034D000E1008091E2008E7F8093E2008091E20023
:1034E00080618093E20042E060E080E00E94C918C1
:1034F0008091F00088608093F0000E941F16FF9179
:10350000EF91BF91AF919F918F917F916F915F915B
:103510004F913F912F910F900FBE0F901F901895D4
:1035200019BC109293020E941C1670CF8091E30088
:1035300087FD93E090939302B3CF1F920F920FB643
:103540000F9211242F933F934F935F936F937F9329
:103550008F939F93AF93BF93CF93DF93EF93FF939B
:10356000D091E900DF708091EC00C82FC17080FD20
:10357000C0E81092E9008091F000877F8093F0000E
:1035800078940E94E11A1092E9008091F00088601E
:103590008093F000CD2BCF70C093E900FF91EF91A5
:1035A000DF91CF91BF91AF919F918F917F916F915B
:1035B0005F914F913F912F910F900FBE0F901F90F1
:1035C0001895AAE2B0E0E7EEFAE10C94591C84E900
:1035D00092E02091F100FC012193CF01F2E08C39BF
:1035E0009F07B9F70E944B168091E80083FF1EC128
:1035F00080919402909195029A3008F017C1E92FBA
:10360000F0E0EA5DF24E0C94441C803899F0823868
:1036100009F00CC1809198028F70873008F006C1C4
:103620008093E9008091EB0085FB882780F9109258
:10363000E90006C080919002909191029111826000
:103640009091E800977F9093E8008093F1001092AA
:10365000F1008091E8008E77E5C0882309F4D3C09B
:10366000823009F0E3C0809196028111D6C080912A
:1036700098028F702FEF280F263008F0D7C0809364
:10368000E9002091EB0020FFC8C0933031F4809115
:10369000EB0080628093EB00C0C09091EB009061E2
:1036A0009093EB0021E030E001C0220F8A95EAF709
:1036B0002093EA001092EA008091EB008860EACF44
:1036C0008111B4C0109196021F778091E300807839
:1036D000812B8093E3008091E800877F8093E8004E
:1036E0000E94FD188091E80080FFFCCF8091E300EC
:1036F00080688093E30082E0111183E0809393025D
:1037000095C08058823008F091C0809196029091C7
:1037100097028C3D23E09207A1F583E08A838AE239
:1037200089834FB7F894DE01139620E03EE051E222
:10373000E32FF0E050935700E49120FF03C0E2959F
:10374000EF703F5FEF708E2F90E0EA30C0F0C796C9
:103750008D939D932F5F243159F74FBF8091E800DF
:10376000877F8093E8006AE270E0CE0101960E94B4
:103770000C188091E8008B778093E80057C0C096C2
:10378000E7CF6091980270919902AE014F5F5F4F51
:103790000E944C17BC01892B09F448C09091E800A5
:1037A000977F9093E80089819A810E946A18E1CFFF
:1037B0008038E1F58091E800877F8093E800809170
:1037C0008F028093F10045CF811130C09091960215
:1037D000923060F58091E800877F8093E8009093B5
:1037E0008F020E94FD1880918F02882311F084E0DF
:1037F00005C08091E30087FDFACF81E080939302BA
:103800000E94361613C080919602813079F481E0CF
:10381000933009F080E0809391021092E90080914A
:10382000E800877F8093E8000E94FD188091E800FF
:1038300083FF0AC08091E800877F8093E800809131
:10384000EB0080628093EB00AA96E3E00C94751C79
:103850000895CF93809193028823A1F0C091E9004D
:10386000CF709091EC00892F817090FD80E8C82B7B
:103870001092E9008091E80083FD0E94E11ACF7068
:10388000C093E900CF910895EE0FFF1F0590F491CA
:10389000E02D09942F923F924F925F926F927F9208
:1038A0008F929F92AF92BF92CF92DF92EF92FF9250
:1038B0000F931F93CF93DF93CDB7DEB7CA1BDB0BFC
:1038C0000FB6F894DEBF0FBECDBF09942A883988A1
:1038D00048885F846E847D848C849B84AA84B984A8
:1038E000C884DF80EE80FD800C811B81AA81B981B4
:1038F000CE0FD11D0FB6F894DEBF0FBECDBFED01C8
:103900000895FB01DC0104C08D910190801921F420
:1039100041505040C8F7881B990B0895FB01DC010A
:1039200002C001900D9241505040D8F70895F99986
:10393000FECF92BD81BDF89A992780B50895A8E180
:10394000B0E042E050E00C94CB1C262FF999FECF5A
:1039500092BD81BDF89A019700B4021639F01FBAE2
:1039600020BD0FB6F894FA9AF99A0FBE08950396FF
:10397000272F0E94A61C0E94A51C252F0E94A61C72
:10398000242F0C94A61C0196272F0E94A61C0C9491
:10399000A51CDC01CB01FC01F999FECF06C0F2BDEC
:1039A000E1BDF89A319600B40D9241505040B8F7FD
:1039B0000895F894FFCF3B043B046C046C04F904B5
:1039C0009B049B049B041505860595059505F71139
:1039D000EE11FA11EC114B124B12EC114B124B126F
:1039E00016124B1221122C124B124B124B124B126D
:1039F000EC114B124B12EC114B1208124B124B12E2
:103A000049124912491249124912491249124912DE
:103A1000491237124B12F711EA114B124B124B128B
:103A20004B124B124B124B124B124B124B123712C2
:103A30004B124B12EC114B123E123E123E123E1232
:103A40003E123E123E123E123E123712051B2D1B35
:103A5000161C2D1B161C601B811B161CD81BE41B7F
:103A60000C02941598150D1608160316971501E209
:103A700000E900EA00B500B600B700CD008301CC34
:103A8000008A0192019401210223022402250226C8
:103A90000227022A02B300B4006F00700081828303
:103AA000E200E900EA00B500B600B700CD008301EE
:103AB000CC008A01920194012102230224022502F2
:103AC000260227022A02B300B4006F007000818230
:103AD000833536323331F7F6F566949034C69791D4
:023AE0009293BF
:00000001FF
